{
  "contractName": "NFTokenMetadata",
  "abi": [
    {
      "constant": true,
      "inputs": [
        {
          "name": "_interfaceID",
          "type": "bytes4"
        }
      ],
      "name": "supportsInterface",
      "outputs": [
        {
          "name": "",
          "type": "bool"
        }
      ],
      "payable": false,
      "stateMutability": "view",
      "type": "function",
      "signature": "0x01ffc9a7"
    },
    {
      "constant": true,
      "inputs": [
        {
          "name": "_tokenId",
          "type": "uint256"
        }
      ],
      "name": "getApproved",
      "outputs": [
        {
          "name": "",
          "type": "address"
        }
      ],
      "payable": false,
      "stateMutability": "view",
      "type": "function",
      "signature": "0x081812fc"
    },
    {
      "constant": false,
      "inputs": [
        {
          "name": "_approved",
          "type": "address"
        },
        {
          "name": "_tokenId",
          "type": "uint256"
        }
      ],
      "name": "approve",
      "outputs": [],
      "payable": false,
      "stateMutability": "nonpayable",
      "type": "function",
      "signature": "0x095ea7b3"
    },
    {
      "constant": false,
      "inputs": [
        {
          "name": "_from",
          "type": "address"
        },
        {
          "name": "_to",
          "type": "address"
        },
        {
          "name": "_tokenId",
          "type": "uint256"
        }
      ],
      "name": "transferFrom",
      "outputs": [],
      "payable": false,
      "stateMutability": "nonpayable",
      "type": "function",
      "signature": "0x23b872dd"
    },
    {
      "constant": false,
      "inputs": [
        {
          "name": "_from",
          "type": "address"
        },
        {
          "name": "_to",
          "type": "address"
        },
        {
          "name": "_tokenId",
          "type": "uint256"
        }
      ],
      "name": "safeTransferFrom",
      "outputs": [],
      "payable": false,
      "stateMutability": "nonpayable",
      "type": "function",
      "signature": "0x42842e0e"
    },
    {
      "constant": true,
      "inputs": [
        {
          "name": "_tokenId",
          "type": "uint256"
        }
      ],
      "name": "ownerOf",
      "outputs": [
        {
          "name": "_owner",
          "type": "address"
        }
      ],
      "payable": false,
      "stateMutability": "view",
      "type": "function",
      "signature": "0x6352211e"
    },
    {
      "constant": true,
      "inputs": [
        {
          "name": "_owner",
          "type": "address"
        }
      ],
      "name": "balanceOf",
      "outputs": [
        {
          "name": "",
          "type": "uint256"
        }
      ],
      "payable": false,
      "stateMutability": "view",
      "type": "function",
      "signature": "0x70a08231"
    },
    {
      "constant": false,
      "inputs": [
        {
          "name": "_operator",
          "type": "address"
        },
        {
          "name": "_approved",
          "type": "bool"
        }
      ],
      "name": "setApprovalForAll",
      "outputs": [],
      "payable": false,
      "stateMutability": "nonpayable",
      "type": "function",
      "signature": "0xa22cb465"
    },
    {
      "constant": false,
      "inputs": [
        {
          "name": "_from",
          "type": "address"
        },
        {
          "name": "_to",
          "type": "address"
        },
        {
          "name": "_tokenId",
          "type": "uint256"
        },
        {
          "name": "_data",
          "type": "bytes"
        }
      ],
      "name": "safeTransferFrom",
      "outputs": [],
      "payable": false,
      "stateMutability": "nonpayable",
      "type": "function",
      "signature": "0xb88d4fde"
    },
    {
      "constant": true,
      "inputs": [
        {
          "name": "_owner",
          "type": "address"
        },
        {
          "name": "_operator",
          "type": "address"
        }
      ],
      "name": "isApprovedForAll",
      "outputs": [
        {
          "name": "",
          "type": "bool"
        }
      ],
      "payable": false,
      "stateMutability": "view",
      "type": "function",
      "signature": "0xe985e9c5"
    },
    {
      "inputs": [],
      "payable": false,
      "stateMutability": "nonpayable",
      "type": "constructor",
      "signature": "constructor"
    },
    {
      "anonymous": false,
      "inputs": [
        {
          "indexed": true,
          "name": "_from",
          "type": "address"
        },
        {
          "indexed": true,
          "name": "_to",
          "type": "address"
        },
        {
          "indexed": true,
          "name": "_tokenId",
          "type": "uint256"
        }
      ],
      "name": "Transfer",
      "type": "event",
      "signature": "0xddf252ad1be2c89b69c2b068fc378daa952ba7f163c4a11628f55a4df523b3ef"
    },
    {
      "anonymous": false,
      "inputs": [
        {
          "indexed": true,
          "name": "_owner",
          "type": "address"
        },
        {
          "indexed": true,
          "name": "_approved",
          "type": "address"
        },
        {
          "indexed": true,
          "name": "_tokenId",
          "type": "uint256"
        }
      ],
      "name": "Approval",
      "type": "event",
      "signature": "0x8c5be1e5ebec7d5bd14f71427d1e84f3dd0314c0f7b2291e5b200ac8c7c3b925"
    },
    {
      "anonymous": false,
      "inputs": [
        {
          "indexed": true,
          "name": "_owner",
          "type": "address"
        },
        {
          "indexed": true,
          "name": "_operator",
          "type": "address"
        },
        {
          "indexed": false,
          "name": "_approved",
          "type": "bool"
        }
      ],
      "name": "ApprovalForAll",
      "type": "event",
      "signature": "0x17307eab39ab6107e8899845ad3d59bd9653f200f220920489ca2b5937696c31"
    },
    {
      "constant": true,
      "inputs": [],
      "name": "name",
      "outputs": [
        {
          "name": "_name",
          "type": "string"
        }
      ],
      "payable": false,
      "stateMutability": "view",
      "type": "function",
      "signature": "0x06fdde03"
    },
    {
      "constant": true,
      "inputs": [],
      "name": "symbol",
      "outputs": [
        {
          "name": "_symbol",
          "type": "string"
        }
      ],
      "payable": false,
      "stateMutability": "view",
      "type": "function",
      "signature": "0x95d89b41"
    },
    {
      "constant": true,
      "inputs": [
        {
          "name": "_tokenId",
          "type": "uint256"
        }
      ],
      "name": "tokenURI",
      "outputs": [
        {
          "name": "",
          "type": "string"
        }
      ],
      "payable": false,
      "stateMutability": "view",
      "type": "function",
      "signature": "0xc87b56dd"
    },
    {
      "constant": false,
      "inputs": [
        {
          "name": "_tokenId",
          "type": "uint256"
        },
        {
          "name": "_uri",
          "type": "string"
        }
      ],
      "name": "mint",
      "outputs": [],
      "payable": false,
      "stateMutability": "nonpayable",
      "type": "function",
      "signature": "0x77097fc8"
    },
    {
      "constant": false,
      "inputs": [
        {
          "name": "_tokenId",
          "type": "uint256"
        }
      ],
      "name": "burn",
      "outputs": [],
      "payable": false,
      "stateMutability": "nonpayable",
      "type": "function",
      "signature": "0x42966c68"
    }
  ],
  "bytecode": "0x60806040523480156200001157600080fd5b50600060208181527f67be87c3ff9960ca1e9cfac5cab2ff4747269cf9ed20c9b7306235ac35a491c58054600160ff1991821681179092557f80ac58cd000000000000000000000000000000000000000000000000000000009093527ff7815fccbf112960a73756e185887fedcb9fc64ca0a16cc5923b7960ed7808008054909316179091556040805180820190915260078082527f4559546f6b656e0000000000000000000000000000000000000000000000000091909201908152620000dd916005919062000180565b506040805180820190915260038082527f45595400000000000000000000000000000000000000000000000000000000006020909201918252620001249160069162000180565b507f5b5e139f0000000000000000000000000000000000000000000000000000000060009081526020527f9562381dfbc2d8b8b66e765249f330164b73e329e5f01670660643571d1974df805460ff1916600117905562000225565b828054600181600116156101000203166002900490600052602060002090601f016020900481019282601f10620001c357805160ff1916838001178555620001f3565b82800160010185558215620001f3579182015b82811115620001f3578251825591602001919060010190620001d6565b506200020192915062000205565b5090565b6200022291905b808211156200020157600081556001016200020c565b90565b61107080620002356000396000f3fe608060405234801561001057600080fd5b50600436106100f55760003560e01c80636352211e11610097578063a22cb46511610066578063a22cb46514610376578063b88d4fde146103a4578063c87b56dd14610434578063e985e9c514610451576100f5565b80636352211e146102a257806370a08231146102bf57806377097fc8146102f757806395d89b411461036e576100f5565b8063095ea7b3116100d3578063095ea7b3146101eb57806323b872dd1461021957806342842e0e1461024f57806342966c6814610285576100f5565b806301ffc9a7146100fa57806306fdde0314610135578063081812fc146101b2575b600080fd5b6101216004803603602081101561011057600080fd5b50356001600160e01b03191661047f565b604080519115158252519081900360200190f35b61013d6104a2565b6040805160208082528351818301528351919283929083019185019080838360005b8381101561017757818101518382015260200161015f565b50505050905090810190601f1680156101a45780820380516001836020036101000a031916815260200191505b509250505060405180910390f35b6101cf600480360360208110156101c857600080fd5b5035610538565b604080516001600160a01b039092168252519081900360200190f35b6102176004803603604081101561020157600080fd5b506001600160a01b038135169060200135610578565b005b6102176004803603606081101561022f57600080fd5b506001600160a01b03813581169160208101359091169060400135610677565b6102176004803603606081101561026557600080fd5b506001600160a01b0381358116916020810135909116906040013561075d565b6102176004803603602081101561029b57600080fd5b503561077d565b6101cf600480360360208110156102b857600080fd5b50356107ac565b6102e5600480360360208110156102d557600080fd5b50356001600160a01b03166107ce565b60408051918252519081900360200190f35b6102176004803603604081101561030d57600080fd5b8135919081019060408101602082013564010000000081111561032f57600080fd5b82018360208201111561034157600080fd5b8035906020019184600183028401116401000000008311171561036357600080fd5b5090925090506107f2565b61013d610821565b6102176004803603604081101561038c57600080fd5b506001600160a01b0381351690602001351515610882565b610217600480360360808110156103ba57600080fd5b6001600160a01b038235811692602081013590911691604082013591908101906080810160608201356401000000008111156103f557600080fd5b82018360208201111561040757600080fd5b8035906020019184600183028401116401000000008311171561042957600080fd5b5090925090506108f0565b61013d6004803603602081101561044a57600080fd5b5035610939565b6101216004803603604081101561046757600080fd5b506001600160a01b03813581169160200135166109ff565b6001600160e01b0319811660009081526020819052604090205460ff165b919050565b60058054604080516020601f600260001961010060018816150201909516949094049384018190048102820181019092528281526060939092909183018282801561052e5780601f106105035761010080835404028352916020019161052e565b820191906000526020600020905b81548152906001019060200180831161051157829003601f168201915b5050505050905090565b60008181526001602052604081205482906001600160a01b031661055b57600080fd5b50506000908152600260205260409020546001600160a01b031690565b60008181526001602052604090205481906001600160a01b0316338114806105c357506001600160a01b038116600090815260046020908152604080832033845290915290205460ff165b6105cc57600080fd5b60008381526001602052604090205483906001600160a01b03166105ef57600080fd5b6000848152600160205260409020546001600160a01b0390811690861681141561061857600080fd5b60008581526002602052604080822080546001600160a01b0319166001600160a01b038a811691821790925591518893918516917f8c5be1e5ebec7d5bd14f71427d1e84f3dd0314c0f7b2291e5b200ac8c7c3b92591a4505050505050565b60008181526001602052604090205481906001600160a01b0316338114806106b557506000828152600260205260409020546001600160a01b031633145b806106e357506001600160a01b038116600090815260046020908152604080832033845290915290205460ff165b6106ec57600080fd5b60008381526001602052604090205483906001600160a01b031661070f57600080fd5b6000848152600160205260409020546001600160a01b03908116908716811461073757600080fd5b6001600160a01b03861661074a57600080fd5b6107548686610a2d565b50505050505050565b61077883838360405180602001604052806000815250610aa8565b505050565b6000818152600160205260409020546001600160a01b031633146107a057600080fd5b6107a981610cc2565b50565b6000818152600160205260409020546001600160a01b03168061049d57600080fd5b60006001600160a01b0382166107e357600080fd5b6107ec82610d09565b92915050565b6107fc3384610d24565b801561077857600083815260076020526040902061081b908383610f69565b50505050565b60068054604080516020601f600260001961010060018816150201909516949094049384018190048102820181019092528281526060939092909183018282801561052e5780601f106105035761010080835404028352916020019161052e565b3360008181526004602090815260408083206001600160a01b03871680855290835292819020805460ff1916861515908117909155815190815290519293927f17307eab39ab6107e8899845ad3d59bd9653f200f220920489ca2b5937696c31929181900390910190a35050565b61093285858585858080601f016020809104026020016040519081016040528093929190818152602001838380828437600092019190915250610aa892505050565b5050505050565b60008181526001602052604090205460609082906001600160a01b031661095f57600080fd5b60008381526007602090815260409182902080548351601f6002600019610100600186161502019093169290920491820184900484028101840190945280845290918301828280156109f25780601f106109c7576101008083540402835291602001916109f2565b820191906000526020600020905b8154815290600101906020018083116109d557829003601f168201915b5050505050915050919050565b6001600160a01b03918216600090815260046020908152604080832093909416825291909152205460ff1690565b6000818152600160205260409020546001600160a01b0316610a4e82610d9f565b610a588183610dda565b610a628383610e3c565b81836001600160a01b0316826001600160a01b03167fddf252ad1be2c89b69c2b068fc378daa952ba7f163c4a11628f55a4df523b3ef60405160405180910390a4505050565b60008281526001602052604090205482906001600160a01b031633811480610ae657506000828152600260205260409020546001600160a01b031633145b80610b1457506001600160a01b038116600090815260046020908152604080832033845290915290205460ff165b610b1d57600080fd5b60008481526001602052604090205484906001600160a01b0316610b4057600080fd5b6000858152600160205260409020546001600160a01b039081169088168114610b6857600080fd5b6001600160a01b038716610b7b57600080fd5b610b858787610a2d565b610b97876001600160a01b0316610ebf565b15610cb857604051600160e11b630a85bd0102815233600482018181526001600160a01b038b81166024850152604484018a9052608060648501908152895160848601528951600095928d169463150b7a029490938f938e938e939260a4019060208501908083838e5b83811015610c19578181015183820152602001610c01565b50505050905090810190601f168015610c465780820380516001836020036101000a031916815260200191505b5095505050505050602060405180830381600087803b158015610c6857600080fd5b505af1158015610c7c573d6000803e3d6000fd5b505050506040513d6020811015610c9257600080fd5b505190506001600160e01b03198116600160e11b630a85bd010214610cb657600080fd5b505b5050505050505050565b610ccb81610ec5565b60008181526007602052604090205460026000196101006001841615020190911604156107a95760008181526007602052604081206107a991610fe7565b6001600160a01b031660009081526003602052604090205490565b6001600160a01b038216610d3757600080fd5b6000818152600160205260409020546001600160a01b031615610d5957600080fd5b610d638282610e3c565b60405181906001600160a01b038416906000907fddf252ad1be2c89b69c2b068fc378daa952ba7f163c4a11628f55a4df523b3ef908290a45050565b6000818152600260205260409020546001600160a01b0316156107a957600090815260026020526040902080546001600160a01b0319169055565b6000818152600160205260409020546001600160a01b03838116911614610e0057600080fd5b6001600160a01b0390911660009081526003602090815260408083208054600019019055928252600190522080546001600160a01b0319169055565b6000818152600160205260409020546001600160a01b031615610e5e57600080fd5b600081815260016020818152604080842080546001600160a01b0319166001600160a01b0388169081179091558452600390915290912054610e9f91610f50565b6001600160a01b0390921660009081526003602052604090209190915550565b3b151590565b60008181526001602052604090205481906001600160a01b0316610ee857600080fd5b6000828152600160205260409020546001600160a01b0316610f0983610d9f565b610f138184610dda565b60405183906000906001600160a01b038416907fddf252ad1be2c89b69c2b068fc378daa952ba7f163c4a11628f55a4df523b3ef908390a4505050565b600082820183811015610f6257600080fd5b9392505050565b828054600181600116156101000203166002900490600052602060002090601f016020900481019282601f10610faa5782800160ff19823516178555610fd7565b82800160010185558215610fd7579182015b82811115610fd7578235825591602001919060010190610fbc565b50610fe3929150611027565b5090565b50805460018160011615610100020316600290046000825580601f1061100d57506107a9565b601f0160209004906000526020600020908101906107a991905b61104191905b80821115610fe3576000815560010161102d565b9056fea165627a7a7230582031c720c3f97ba079aba6eea054004e07a188d6044a284fab491c1f046647eefc0029",
  "source": "pragma solidity 0.5.8;\n\nimport \"./NFToken.sol\";\nimport \"./ERC721Metadata.sol\";\n\n/**\n * @dev Optional metadata implementation for ERC-721 non-fungible token standard.\n The MIT License\n\nCopyright (c) 2017-2018 0xcert, d.o.o. https://0xcert.org\n\nPermission is hereby granted, free of charge, to any person obtaining a copy\nof this software and associated documentation files (the \"Software\"), to deal\nin the Software without restriction, including without limitation the rights\nto use, copy, modify, merge, publish, distribute, sublicense, and/or sell\ncopies of the Software, and to permit persons to whom the Software is\nfurnished to do so, subject to the following conditions:\n\nThe above copyright notice and this permission notice shall be included in\nall copies or substantial portions of the Software.\n\nTHE SOFTWARE IS PROVIDED \"AS IS\", WITHOUT WARRANTY OF ANY KIND, EXPRESS OR\nIMPLIED, INCLUDING BUT NOT LIMITED TO THE WARRANTIES OF MERCHANTABILITY,\nFITNESS FOR A PARTICULAR PURPOSE AND NONINFRINGEMENT. IN NO EVENT SHALL THE\nAUTHORS OR COPYRIGHT HOLDERS BE LIABLE FOR ANY CLAIM, DAMAGES OR OTHER\nLIABILITY, WHETHER IN AN ACTION OF CONTRACT, TORT OR OTHERWISE, ARISING FROM,\nOUT OF OR IN CONNECTION WITH THE SOFTWARE OR THE USE OR OTHER DEALINGS IN\nTHE SOFTWARE.\n */\ncontract NFTokenMetadata is\n  NFToken,\n  ERC721Metadata\n{\n\n  /**\n   * @dev A descriptive name for a collection of NFTs.\n   */\n  string internal nftName;\n\n  /**\n   * @dev An abbreviated name for NFTokens.\n   */\n  string internal nftSymbol;\n\n  /**\n   * @dev Mapping from NFT ID to metadata uri.\n   */\n  mapping (uint256 => string) internal idToUri;\n\n  /**\n   * @dev Contract constructor.\n   * @notice When implementing this contract don't forget to set nftName and nftSymbol.\n   */\n  constructor()\n    public\n  {\n    nftName = \"EYToken\";\n    nftSymbol= \"EYT\";\n    supportedInterfaces[0x5b5e139f] = true; // ERC721Metadata\n  }\n\n  /**\n   * @dev Returns a descriptive name for a collection of NFTokens.\n   * @return Representing name.\n   */\n  function name()\n    external\n    view\n    returns (string memory _name)\n  {\n    _name = nftName;\n  }\n\n  /**\n   * @dev Returns an abbreviated name for NFTokens.\n   * @return Representing symbol.\n   */\n  function symbol()\n    external\n    view\n    returns (string memory _symbol)\n  {\n    _symbol = nftSymbol;\n  }\n\n  /**\n   * @dev A distinct URI (RFC 3986) for a given NFT.\n   * @param _tokenId Id for which we want uri.\n   * @return URI of _tokenId.\n   */\n  function tokenURI(\n    uint256 _tokenId\n  )\n    external\n    view\n    validNFToken(_tokenId)\n    returns (string memory)\n  {\n    return idToUri[_tokenId];\n  }\n\n  /**\n   * added by Chaitanya-Konda\n   * @dev Mints a new NFT.\n   * @notice This function calls the internal _mint function.\n   * @param _tokenId of the NFT to be minted by the msg.sender.\n   * @param _uri String representing RFC 3986 URI.\n   */\n  function mint(\n    uint256 _tokenId,\n    string calldata _uri\n  )\n    external\n  {\n    super._mint(msg.sender, _tokenId);\n    if (bytes(_uri).length != 0)\n    {\n      idToUri[_tokenId] = _uri;\n    }\n  }\n\n   /**\n   * added by Chaitanya-Konda\n   * @dev Burns a NFT.\n   * @notice This function calls the internal _burn function. Also, note that this burn implementation allows the minter to re-mint a burned\n   * NFT.\n   * @param _tokenId ID of the NFT to be burned.\n   */\n  function burn(\n    uint256 _tokenId\n  )\n    external\n  {\n    require(msg.sender == idToOwner[_tokenId]);\n    _burn(_tokenId);\n  }\n\n\n  /**\n   * @dev Burns a NFT.\n   * @notice This is an internal function which should be called from user-implemented external\n   * burn function. Its purpose is to show and properly initialize data structures when using this\n   * implementation. Also, note that this burn implementation allows the minter to re-mint a burned\n   * NFT.\n   * @param _tokenId ID of the NFT to be burned.\n   */\n  function _burn(\n    uint256 _tokenId\n  )\n    internal\n  {\n    super._burn(_tokenId);\n\n    if (bytes(idToUri[_tokenId]).length != 0)\n    {\n      delete idToUri[_tokenId];\n    }\n  }\n\n  /**\n   * @dev Set a distinct URI (RFC 3986) for a given NFT ID.\n   * @notice This is an internal function which should be called from user-implemented external\n   * function. Its purpose is to show and properly initialize data structures when using this\n   * implementation.\n   * @param _tokenId Id for which we want uri.\n   * @param _uri String representing RFC 3986 URI.\n   */\n  function _setTokenUri(\n    uint256 _tokenId,\n    string memory _uri\n  )\n    internal\n    validNFToken(_tokenId)\n  {\n    idToUri[_tokenId] = _uri;\n  }\n\n}\n",
  "sourcePath": "/truffle/contracts/NFTokenMetadata.sol",
  "compiler": {
    "name": "solc",
    "version": "0.5.8+commit.23d335f2.Emscripten.clang"
  },
  "schemaVersion": "3.0.5",
  "updatedAt": "2019-09-24T18:22:55.935Z",
  "devdoc": {
    "details": "Optional metadata implementation for ERC-721 non-fungible token standard. The MIT License Copyright (c) 2017-2018 0xcert, d.o.o. https://0xcert.org Permission is hereby granted, free of charge, to any person obtaining a copy of this software and associated documentation files (the \"Software\"), to deal in the Software without restriction, including without limitation the rights to use, copy, modify, merge, publish, distribute, sublicense, and/or sell copies of the Software, and to permit persons to whom the Software is furnished to do so, subject to the following conditions: The above copyright notice and this permission notice shall be included in all copies or substantial portions of the Software. THE SOFTWARE IS PROVIDED \"AS IS\", WITHOUT WARRANTY OF ANY KIND, EXPRESS OR IMPLIED, INCLUDING BUT NOT LIMITED TO THE WARRANTIES OF MERCHANTABILITY, FITNESS FOR A PARTICULAR PURPOSE AND NONINFRINGEMENT. IN NO EVENT SHALL THE AUTHORS OR COPYRIGHT HOLDERS BE LIABLE FOR ANY CLAIM, DAMAGES OR OTHER LIABILITY, WHETHER IN AN ACTION OF CONTRACT, TORT OR OTHERWISE, ARISING FROM, OUT OF OR IN CONNECTION WITH THE SOFTWARE OR THE USE OR OTHER DEALINGS IN THE SOFTWARE.",
    "methods": {
      "approve(address,uint256)": {
        "details": "Set or reaffirm the approved address for an NFT. This function can be changed to payable.",
        "params": {
          "_approved": "Address to be approved for the given NFT ID.",
          "_tokenId": "ID of the token to be approved."
        }
      },
      "balanceOf(address)": {
        "details": "Returns the number of NFTs owned by `_owner`. NFTs assigned to the zero address are considered invalid, and this function throws for queries about the zero address.",
        "params": {
          "_owner": "Address for whom to query the balance."
        },
        "return": "Balance of _owner."
      },
      "burn(uint256)": {
        "details": "Burns a NFT.",
        "params": {
          "_tokenId": "ID of the NFT to be burned."
        }
      },
      "constructor": {
        "details": "Contract constructor."
      },
      "getApproved(uint256)": {
        "details": "Get the approved address for a single NFT.",
        "params": {
          "_tokenId": "ID of the NFT to query the approval of."
        },
        "return": "Address that _tokenId is approved for."
      },
      "isApprovedForAll(address,address)": {
        "details": "Checks if `_operator` is an approved operator for `_owner`.",
        "params": {
          "_operator": "The address that acts on behalf of the owner.",
          "_owner": "The address that owns the NFTs."
        },
        "return": "True if approved for all, false otherwise."
      },
      "mint(uint256,string)": {
        "details": "Mints a new NFT.",
        "params": {
          "_tokenId": "of the NFT to be minted by the msg.sender.",
          "_uri": "String representing RFC 3986 URI."
        }
      },
      "name()": {
        "details": "Returns a descriptive name for a collection of NFTokens.",
        "return": "Representing name."
      },
      "ownerOf(uint256)": {
        "details": "Returns the address of the owner of the NFT. NFTs assigned to zero address are considered invalid, and queries about them do throw.",
        "params": {
          "_tokenId": "The identifier for an NFT."
        },
        "return": "Address of _tokenId owner."
      },
      "safeTransferFrom(address,address,uint256)": {
        "details": "Transfers the ownership of an NFT from one address to another address. This function can be changed to payable.",
        "params": {
          "_from": "The current owner of the NFT.",
          "_to": "The new owner.",
          "_tokenId": "The NFT to transfer."
        }
      },
      "safeTransferFrom(address,address,uint256,bytes)": {
        "details": "Transfers the ownership of an NFT from one address to another address. This function can be changed to payable.",
        "params": {
          "_data": "Additional data with no specified format, sent in call to `_to`.",
          "_from": "The current owner of the NFT.",
          "_to": "The new owner.",
          "_tokenId": "The NFT to transfer."
        }
      },
      "setApprovalForAll(address,bool)": {
        "details": "Enables or disables approval for a third party (\"operator\") to manage all of `msg.sender`'s assets. It also emits the ApprovalForAll event.",
        "params": {
          "_approved": "True if the operators is approved, false to revoke approval.",
          "_operator": "Address to add to the set of authorized operators."
        }
      },
      "supportsInterface(bytes4)": {
        "details": "Function to check which interfaces are suported by this contract.",
        "params": {
          "_interfaceID": "Id of the interface."
        },
        "return": "True if _interfaceID is supported, false otherwise."
      },
      "symbol()": {
        "details": "Returns an abbreviated name for NFTokens.",
        "return": "Representing symbol."
      },
      "tokenURI(uint256)": {
        "details": "A distinct URI (RFC 3986) for a given NFT.",
        "params": {
          "_tokenId": "Id for which we want uri."
        },
        "return": "URI of _tokenId."
      },
      "transferFrom(address,address,uint256)": {
        "details": "Throws unless `msg.sender` is the current owner, an authorized operator, or the approved address for this NFT. Throws if `_from` is not the current owner. Throws if `_to` is the zero address. Throws if `_tokenId` is not a valid NFT. This function can be changed to payable.",
        "params": {
          "_from": "The current owner of the NFT.",
          "_to": "The new owner.",
          "_tokenId": "The NFT to transfer."
        }
      }
    }
  },
  "userdoc": {
    "methods": {
      "approve(address,uint256)": {
        "notice": "The zero address indicates there is no approved address. Throws unless `msg.sender` is the current NFT owner, or an authorized operator of the current owner."
      },
      "burn(uint256)": {
        "notice": "added by Chaitanya-KondaThis function calls the internal _burn function. Also, note that this burn implementation allows the minter to re-mint a burned NFT."
      },
      "constructor": "When implementing this contract don't forget to set nftName and nftSymbol.",
      "getApproved(uint256)": {
        "notice": "Throws if `_tokenId` is not a valid NFT."
      },
      "mint(uint256,string)": {
        "notice": "added by Chaitanya-KondaThis function calls the internal _mint function."
      },
      "safeTransferFrom(address,address,uint256)": {
        "notice": "This works identically to the other function with an extra data parameter, except this function just sets data to \"\""
      },
      "safeTransferFrom(address,address,uint256,bytes)": {
        "notice": "Throws unless `msg.sender` is the current owner, an authorized operator, or the approved address for this NFT. Throws if `_from` is not the current owner. Throws if `_to` is the zero address. Throws if `_tokenId` is not a valid NFT. When transfer is complete, this function checks if `_to` is a smart contract (code size > 0). If so, it calls `onERC721Received` on `_to` and throws if the return value is not `bytes4(keccak256(\"onERC721Received(address,uint256,bytes)\"))`."
      },
      "setApprovalForAll(address,bool)": {
        "notice": "This works even if sender doesn't own any tokens at the time."
      },
      "transferFrom(address,address,uint256)": {
        "notice": "The caller is responsible to confirm that `_to` is capable of receiving NFTs or else they maybe be permanently lost."
      }
    }
  }
}